:020000020000FC
:040000000C949000CC
:1001000041884828844424824222812111121418F3
:100110007E0C371F4D5B7B0E7F5F6F79313D7363C4
:1001200001E21FEF1DBF0EBF0FEF01B900EF07B9CE
:1001300001E002B9442751E0E0E0F1E0E50F14915D
:1001400018B9000000000000000026B1211719F4C2
:10015000452F0E94B0005395513171F70C949A00CD
:10016000E0E1F1E0E40F149130E838B912B90E94EF
:10017000BA00089588E0615070408040E0F708952B
:00000001FF
