:020000020000FC
:0C0000000C9480000C9498000C94EB0011
:100100000FEF01B90FEF04B903E000933D000FE0DA
:100110000093690000E002B900E005B921E033274F
:100120007894022F02B9032F05B988950C94950095
:10013000022F0F9300E81F91101711F0002701C044
:1001400001E0002311F00C94D900032F0F9301E07C
:100150001F91101711F0002701C001E00023A1F446
:10016000032F0F9300E01F91101711F0002701C01B
:1001700001E0002349F0022F0F9300E01F911017B8
:1001800011F0002701C001E0002311F00C94E00001
:10019000022F0F9300E01F91101711F4002701C0E8
:1001A00001E0002311F00C94E7003695032F05B908
:1001B0001895222730E8022F02B9032F05B91895A8
:1001C000332721E0022F02B9032F05B91895220F1A
:1001D000022F02B91895032F0F9300E81F911017F3
:1001E00011F0002701C001E0002311F00C942C0154
:1001F000022F0F9301E01F91101711F0002701C08B
:1002000001E00023A1F4032F0F9300E01F911017CA
:1002100011F0002701C001E0002349F0022F0F93E5
:1002200000E01F91101711F0002701C001E000232A
:1002300011F00C943301022F0F9300E01F9110175F
:1002400011F4002701C001E0002311F00C943A01E1
:10025000330F032F05B91895332720E8022F02B971
:10026000032F05B91895222731E0022F02B9032F79
:0C02700005B918952695022F02B91895C3
:00000001FF
