:020000020000FC
:040000000C948800D4
:040054000C94AA005E
:100100007E0C371F4D5B7B0E7F5F6F79313D7363D4
:100110000FEF01B900E002B900EE07B900E008B93D
:1001200008E20093470002E00093440005E00093DA
:10013000450002E000936E007894222700E2702FC1
:1001400033274427552766270FEF02B90E9418016D
:100150000C94A6002395022F0F9304E61F9110170D
:1001600010F4002701C001E0002311F00C94E4001A
:10017000072F0F9300E81F91101711F0002701C0FF
:1001800001E0002311F00C94DE00072F0F9300E430
:100190001F91101711F0002701C001E0002311F09A
:1001A0000C94D80000E4702F072F08B9352F18954C
:1001B00000E8702F072F08B9362F189500E2702F2E
:1001C000072F08B9342F18952227042F0F9309E021
:1001D0001F91101710F4002701C001E0002311F057
:1001E0000C94F4004395189544275395052F0F93CD
:1001F00009E01F91101719F010F0002701C001E06D
:10020000002311F00C94170155276395062F0F93C7
:1002100009E01F91101719F010F0002701C001E04C
:10022000002311F00C9417014427552766271895D1
:10023000032FE0E0F1E01127E00FF11F049102B974
:0202400008951F
:00000001FF
