:020000020000FC
:040000000C948800D4
:040030000C949A0092
:100100007E0C371F4D5B7B0E7F5F6F79313D7363D4
:100110000FEF01B900E002B900E10093600006E4CE
:1001200000936000789444270FEF02B90E94AB005F
:100130000C949600042F0F930FE01F91101710F4EA
:10014000002701C001E0002311F00C94A9004395A1
:10015000189544271895042FA0E8B0E01127A00FA8
:10016000B11F0C9102B90895E0E0F1E0E40F349181
:1001700032B9089588E0615070408040E0F70895FA
:00000001FF
