:020000020000FC
:100000000C9488000C94CE000C94DD000C94FC0041
:040010000C94050146
:040030000C94A30089
:100100007E0C371F4D5B7B0E7F5F6F79313D7363D4
:100110000FEF01B900E002B90FEF04B900E005B933
:1001200000E80AB900E00BB90FE000933D000FEFC3
:10013000009369007894442755270FEF02B90E9475
:100140000E010C949F00042F0F9300E01F911017D5
:1001500011F0002701C001E0002311F00C94B2005F
:100160004A951895052F0F9300E01F91101711F075
:10017000002701C001E0002311F00C94C30009E046
:10018000402F5A9518955527442700E100936000A9
:1001900000E00093600000E00BB91895052F0F9365
:1001A00009E01F91101710F4002701C001E000239F
:1001B00011F00C94DC0053951895042F0F9309E06F
:1001C0001F91101710F4002701C001E0002311F067
:1001D0000C94EC0043951895052F0F9309E01F919F
:1001E000101710F4002701C001E0002311F00C9457
:1001F000FB0044275395189500E10093600006E446
:100200000093600000E80BB9189500E100936000CE
:1002100000E00093600000E00BB91895042FE0E0C7
:10022000F1E01127E00FF11F049105B9052FE0E07F
:0E023000F1E01127E00FF11F049102B90895CB
:00000001FF
